:020000040000FA
:1000000020110010D5000000D9000000DB00000026
:10001000DD000000DF000000E10000000000000043
:10002000000000000000000000000000E3000000ED
:10003000E500000000000000E7000000573B000062
:10004000EB000000EB000000EB000000EB00000004
:10005000EB000000EB000000EB000000EB000000F4
:10006000EB000000EB000000EB000000EB000000E4
:10007000EB000000FB1600005F0E00007D13000087
:10008000EB000000EB000000AF0900002D0A0000AB
:100090001D0E0000ED060000EB000000EB0000006C
:1000A000EB000000EB000000EB000000EB000000A4
:1000B00093480000EB000000434800001548000092
:1000C0000348854605F03EFA00480047B146000067
:1000D0002011001005480047FEE7FEE7FEE7FEE7B7
:1000E000FEE7FEE7FEE7FEE7FEE7FEE7C1000000F1
:1000F0002E492F4A116001212E4A116051600021C2
:1001000051600121516000BF2A494968C907C90FE0
:10011000FAD029498868400A400203210143264A4F
:1001200091602649896B80229143244A916300BFE4
:100130002149C968C907C90FFAD003211D4A1163B3
:1001400001215163002151630121516300BF19490D
:10015000496BC907C90FFAD00121164A91631449A6
:1001600009688900164A116011460968154A11602C
:10017000704700B5022010490860002008620F484F
:10018000806B202188430D498863002300E05B1CBD
:10019000FF2BFCD9FFF7ACFF064840300068012177
:1001A000090408430849086000BD0000001BB700AF
:1001B00000000010408004400080044000820440A1
:1001C000040000100800001080800440A021174A9D
:1001D0005162174908610121154A5161002151619D
:1001E0000121516100BF12494969C907C90FFAD0FD
:1001F00001210F4A91610F49896B402291430D4AB9
:10020000916370470A4908620121094A516200213D
:1002100051620121516200BF0549496AC907C90FEE
:10022000FAD00121024A9162704700000080044028
:10023000C08004400082044000BF1E49496920225A
:100240001142FAD01B490860704710B503460C46AE
:100250001846FFF7F1FF10BD00BF174800680028DF
:10026000FBD006201349486000201349086007208E
:100270001049486011480078704710B50446FFF7F0
:10028000EBFF0346FFF7D8FF10BD00B50346184645
:10029000FFF7D2FF00BD01460948704700BFFEE7E7
:1002A00000BF04484069C007C00FFAD00148006889
:1002B000704700000080004010000010480400104B
:1002C000FFFFFFFF10B500210CE0002205E0002336
:1002D00000E05B1C1E2BFCD3521CFF242D34A242D9
:1002E000F5D3491C8142F0D310BD0146002000E047
:1002F000401C0A5C002AFBD170477047FFFFFFFFDC
:1003000010B5F348006840210843F14908601F20F8
:1003100000F0D7F91E2000F0D4F91D2000F0D1F92B
:100320001C2000F0CEF910BD70B5049C002806D04A
:10033000012838D002286AD003287BD19CE0002A0B
:1003400018D1E44D6D6801268E40B543E14E7560CD
:10035000002B07D13546AD6801268E40B543DD4EF2
:10036000B5600EE0DB4DAD6801268E403543D94EB9
:10037000B56006E0D74D6D6801268E403543D54EF9
:100380007560002C07D1D34DED6801268E40B54332
:10039000D04EF56006E0CF4DED6801268E40354326
:1003A000CC4EF5609DE0002A18D1CB4D6D6801263A
:1003B0008E40B543C84E7560002B07D13546AD68F9
:1003C00001268E40B543C44EB5600EE0C24DAD6807
:1003D00001268E403543C04EB56006E0BE4D6D68C7
:1003E00001268E403543BC4E7560002C07D1BA4DB6
:1003F000ED6801268E40B543B74EF56006E0B64D78
:10040000ED6801268E403543B34EF56069E0002A61
:1004100019D1B24D6D6801268E40B543AF4E75605F
:10042000002B08D13546AD6801268E40B543AB4E52
:10043000B5600FE054E0A94DAD6801268E4035430C
:10044000A64EB56006E0A54D6D6801268E40354389
:10045000A24E7560002C07D1A04DED6801268E409C
:10046000B5439E4EF56006E09C4DED6801268E403A
:1004700035439A4EF56034E0002A18D1984D6D68E6
:1004800001268E40B543964E7560002B07D1354648
:10049000AD6801268E40B543914EB5600EE0904D9B
:1004A000AD6801268E4035438D4EB56006E08C4D1B
:1004B0006D6801268E403543894E7560002C07D14A
:1004C000874DED6801268E40B543854EF56006E008
:1004D000834DED6801268E403543814EF56000E086
:1004E00000BF00BF70BD002806D001280CD0022834
:1004F00012D0032820D117E0764A126901238B40DD
:100500001A43744B1A6118E0734A126901238B4035
:100510001A43714B1A6110E0704A126901238B4033
:100520001A436E4B1A6108E06D4A126901238B4031
:100530001A436B4B1A6100E000BF00BF70470028F0
:1005400006D001280CD0022812D0032820D117E0B1
:10055000604A126901238B409A435E4B1A6118E08E
:100560005D4A126901238B409A435B4B1A6110E08C
:100570005A4A126901238B409A43584B1A6108E08A
:10058000574A136901228A409343554A136100E098
:1005900000BF00BF704710B502460020002A06D0F9
:1005A000012A0CD0022A12D0032A20D117E0494B8D
:1005B0009B6901248C40234200D0012018E0464B67
:1005C0009B6901248C40234200D0012010E0434B62
:1005D0009B6901248C40234200D0012008E0404B5D
:1005E0009B6901248C40234200D0012000E000BF21
:1005F00000BF10BD002806D001280CD0022812D060
:10060000032820D117E0334AD26901238B401A43D3
:10061000304BDA6118E0304AD26901238B401A432B
:100620002D4BDA6110E02D4AD26901238B401A4329
:100630002A4BDA6108E02A4AD26901238B401A4327
:10064000274BDA6100E000BF00BF704730B51346AA
:100650008B408400234D2D5901248C40A4002B5144
:1006600030BD024690001F4B1B580120884080007F
:100670001858704730B5002A11D08300194CE35840
:100680000124E4031B191B6801248C4023438400CC
:10069000144D2C590125ED036419236010E08300EB
:1006A000104CE3580124E4031B191B6801248C40FF
:1006B000A34384000B4D2C590125ED0364192360DD
:1006C00030BDC206D20E01219140074A1160704729
:1006D0008080044000800050008001500080025063
:1006E000008003501464000000E100E070B500BF1A
:1006F000854A9268D0B240104007400F032820D1AD
:10070000814A5269D1B29E22114205D07F4A1160BE
:100710007D4A1268D3B270BDCA07D20F3ED07A4C60
:100720002468E5B27A4C2268541C794E3460794CC6
:10073000A55432461268402A30D300223446226043
:100740002CE0022811D1704C2468E5B2704C22686C
:10075000541C6F4E34606F4CA55432461268402AC8
:100760001CD300223446226018E0062807D1674ACD
:100770001268FF2401342243644C22600EE00128F9
:100780000CD1614A5269D1B22022114203D0012218
:10079000614C227002E000225F4C227000BFBAE779
:1007A000F8B5044601205C490870002058490860EB
:1007B000152001218140594A116000BF5848406A04
:1007C000C008C000564948620846406A01210843F3
:1007D000534948620846806AC008C00088620846DB
:1007E000806A012108434E4988624E4800684E499C
:1007F00008434C4908600120886183204249C86051
:100800004848876939464948006804F083FB06096F
:100810002146304604F07EFB0546280A3A494860E6
:10082000E8B208600320C86007208860084647696E
:1008300000BF35484069602108406028F9D101E0D7
:100840003148076830484069C007C00FF8D115200B
:1008500001218140364A116000BF05202A494860C5
:10086000F8BD0AE000BF284A526920231A42FAD094
:100870000278254B1A60401C491E0029F2D17047AE
:1008800000BF2149496920221142FAD01E4908605F
:10089000704700B5034603E018785B1CFFF7F0FFD4
:1008A00018780028F8D100BD0FB400B59BB01DA882
:1008B0000090642101A8009B1C9A04F0BBFE01A8D3
:1008C000FFF7E7FF002000901BB008BC04B01847FA
:1008D0000146184800680E4A1268904211D00D482F
:1008E000144A1268805C087012480068401C114A63
:1008F000106010460068402801D3002010600120DD
:1009000070470020FCE70000008000401800001045
:1009100010000010480400100C00001080E100E0FE
:100920008040044080800440001000000800001057
:1009300000E100E01400001070B504460D46002CE4
:1009400019D10220FE4948600020C860FD49FE48D8
:10095000006804F0DFFA6843F9498861FF20086005
:10096000042048610120486000BFF5484068C00786
:10097000C00FFAD11AE0012C18D10220F3494860C7
:100980000020C860EF49F048006804F0C3FA6843EB
:10099000EE498861FF20086004204861012048601A
:1009A00000BFEA484068C007C00FFAD170BD10B55B
:1009B000E3480068C007C00F2AD00120E049086062
:1009C000E3480068401CE249086008460068DD49C9
:1009D000884202D30020DE490860DD480068DD4916
:1009E000097888420AD2012202210020FFF742FE44
:1009F000012202210020FFF729FE09E00122022145
:100A00000020FFF737FE002202211046FFF71EFEEE
:100A1000CB4800681021084207D01020C849086060
:100A2000CD480068401CCC49086010BDC74800682C
:100A3000C007C00F07D00120C4490860C74800683C
:100A4000401CC6490860C14800681021084207D010
:100A50001020BE490860C2480068401CC0490860B8
:100A60007047002803D10121B54A516002E00121FD
:100A7000B64A51607047002803D10021B04A516046
:100A800002E00021B14A516070470146002906D1B9
:100A9000AB4A506802221043A94A506005E0AB4AB5
:100AA000506802221043A94A5060704770B504464E
:100AB0000D46002C41D1AB48006801214902084392
:100AC000A8490860A848006AC008C000A649086292
:100AD0000846006A08620846406AC008C0004862CA
:100AE0000846406A022108439F4948620846806AD6
:100AF000C008C00088620846806A022108439A49FB
:100B000088629A480069C008C00098490861084690
:100B10000069022108439549086100208C4908605A
:100B20008D490860864885610520854988620320D3
:100B30004861122000F062F922E0012C20D189489E
:100B40000068A10208438749086087484069C008D7
:100B5000C00085494861084640690221084382492E
:100B6000486100207D4908607D49086077488561BB
:100B700005207649886203204861132000F03EF981
:100B800070BD70B504460D46002C12D17548006842
:100B90000121490208437349086000206C4908603C
:100BA00067488561032066494861122000F026F9F4
:100BB00012E0012C10D16B480068A102084369497A
:100BC00008600020654908606048856103205F492E
:100BD0004861132000F012F970BD30B505460C468F
:100BE00013462846FFF747FF012D5ED15D48006898
:100BF000A90208435B4908605D4818435349C8632C
:100C0000D807C00F0CD058484038C06BC008C0008F
:100C10005849C8630846C06B032108435549C86357
:100C2000022003420BD050480068C008C0004E4963
:100C3000086008460068032108434B490860042007
:100C400003420BD048480069C008C000464908610B
:100C5000084600690321084343490861082003420C
:100C60000BD041484069C008C0003F494861084670
:100C70004069022108433C494861082018433E4925
:100C800048633E4804600068304948623B48006859
:100C900040088861394800684008C86137480068E2
:100CA000400808623648486176E02E480068012115
:100CB000490208432B490860324818432049C86359
:100CC000022003420BD02848806AC008C000264991
:100CD00088620846806A022108432349886204200A
:100CE00003420BD021480069C008C0001F490861B9
:100CF00008460069022108431C4908610820034294
:100D00000BD01C48406BC008C0001A494863084615
:100D1000406B0321084317494863082018431A49C8
:100D200048631A480460006805494862174800682B
:100D30008861164800684008C8611448006827E0C8
:100D400000400140E803000008000010008001405E
:100D5000240000103C0000102C000010280000109F
:100D60003000001080800440804004400040044077
:100D700098050000404004404080014038000010C9
:100D800000040000580600004040014034000010FC
:100D9000400808621D48486130BD002816D000296F
:100DA00006D0012907D0022908D003290CD108E078
:100DB000174B9A6109E0164BDA6106E0144B1A6290
:100DC00003E0134B5A6200E000BF16E0002906D092
:100DD000012907D0022908D003290CD108E00D4BC6
:100DE0009A6109E00B4BDA6106E00A4B1A6203E0F4
:100DF000084B5A6200E000BF00BF7047C206D20E27
:100E000001219140044A1160704700000004000075
:100E1000008001400040014000E100E0F749C8695E
:100E2000C107C90F07D0F6490968491CF44A116087
:100E30000121F24A11620221084207D0F1490968F2
:100E4000491CF04A11600221EC4A11620421084257
:100E500004D0ED490968491CEB4A11607047EB4921
:100E6000C869C107C90F07D0E9490968491CE84AA0
:100E700011600121E54A11620221084207D0E549CB
:100E80000968491CE34A11600221E04A1162042109
:100E9000084204D0E0490968491CDF4A11607047E4
:100EA00010B50446002C40D1DC48406801210843BD
:100EB000DA494860DA480068DA490843D8490860E6
:100EC00002204861D848006AC008C000D6490862BC
:100ED0000846006A01210843D34908620846406A6F
:100EE000C008C00048620846406A01210843CE4954
:100EF00048620120CD490863CB490863C8480068AF
:100F000040210843C6490860C948C069C008C000FC
:100F1000C749C861012202210020FFF7ABFB012273
:100F200002210020FFF792FB47E0BC484068042103
:100F30000843BA494860BA480068BE490843B849FE
:100F400008600220C861B848C069C008C000B6493E
:100F5000C8610846C06902210843B349C861B34863
:100F6000C068C008C000B149C8600846C068022116
:100F70000843AE49C860AE48806AC008C000AC49AA
:100F800088620846806A02210843A9498862A44809
:100F9000006840210843A2490860A5488068C0084D
:100FA000C000A3498860012200210220FFF762FBF4
:100FB000012200210220FFF749FB10BD10B50446B5
:100FC000002C60D19548406801210843934948604E
:100FD000934800689349084391490860022048619A
:100FE0009148006AC008C0008F4908620846006A3C
:100FF000012108438C4908620846406AC008C000C5
:1010000048620846406A0121084387494862022035
:10101000864908638449C8608148006840210843C4
:101020007F49086080480068C008C0007E490860A9
:10103000012204210220FFF71DFB012204210220CE
:10104000FFF704FB7A480068C008C00078490860D0
:10105000012206210220FFF70DFB012206210220BA
:10106000FFF7F4FA7248006AC008C00070490862CD
:10107000012207210220FFF7FDFA012207210220A9
:10108000FFF7E4FA47E065484068042108436349F4
:101090004860634800686749084361490860022066
:1010A000C8616148C069C008C0005F49C86108469E
:1010B000C069022108435C49C8615C48C068C00837
:1010C000C0005A49C8600846C06802210843574911
:1010D000C8605748806AC008C00055498862084601
:1010E000806A02210843524988624D4800684021C5
:1010F00008434B4908604E488068C008C0004C490E
:101100008860012200210220FFF7B4FA01220021A9
:101110000220FFF79BFA10BD70B5054600BF002DF9
:1011200016D1454835490860FE200861002404E0D6
:1011300032488068C6B2601CC4B2082CF8DB1420A8
:1011400000F00EF902202D4948600320486115E0A7
:1011500039482E49086002200861002404E02B4829
:101160008068C6B2601CC4B2082CF8DB0E2000F008
:10117000F7F80220254948600320486170BDF8B5A2
:1011800007460D46164600980090002F1AD1681E9B
:10119000072109020843194908600846066100242E
:1011A00005E016488068C0B20090601CC4B2082CEC
:1011B000F7DB142000F0D4F8022010494860032027
:1011C000486119E0681E0721090208430F490860B9
:1011D00008460661002405E00C488068C0B2009013
:1011E000601CC4B2082CF7DB0E2000F0B9F8022016
:1011F0000649486003204861F8BD00000000044033
:10120000440000104800001040000010008005401D
:1012100050000010540000104C00001000800440EA
:1012200080800440000800004040044080400440AA
:1012300000400440000004000707000070B500BF34
:1012400000232DE0002815D100BF494DED6812267E
:101250003540022DF9D10D78454EB560491C00BFCF
:10126000434DED6814263540042DF9D1404DAD684D
:10127000ECB214E000BF3F4DED6812263540022D60
:10128000F9D10D783B4EB560491C00BF394DED6872
:1012900014263540042DF9D1364DAD68ECB25B1CF7
:1012A0009342CFD370BD30B500231FE000280ED18C
:1012B000FF242F4DAC6000BF2D4CE46814252C405A
:1012C000042CF9D12A4CA4680C70491C0DE0FF24B1
:1012D000284DAC6000BF274CE46814252C40042C3A
:1012E000F9D1244CA4680C70491C5B1C9342DDD3DB
:1012F00030BD0246002A19D100BF1D48C068122324
:1013000018400228F9D11A48816000BF1848C06807
:1013100010231842FAD100BF1548C06814231840A2
:101320000428F9D11248806880B2704700BF114884
:10133000C068122318400228F9D10E48816000BF0E
:101340000C48C06810231842FAD100BF0948C06891
:10135000142318400428F9D10648806880B2E4E7D5
:10136000C206D20E01219140034A1160704700006D
:10137000000004400080054000E100E010B50120BD
:1013800080074068C1B24807400F72D1C8100300FF
:1013900004F079F90CAD071421A53637AE60A670BC
:1013A00091AD0020A64A1060A6480078A64A906039
:1013B000282090610120A54A10609DE00020A44AE9
:1013C0001060A0480078A04A906028209061022018
:1013D0009E4A106090E09D48006801280CD1984A10
:1013E0001068421C964B1A609A4A1268125C964B1F
:1013F0009A600420954A10600820934A90617BE02F
:1014000000BF8F480068944A126890420DD28C4AFF
:101410001068421C8A4B1A608E4A1268125C8A4B12
:101420009A600420894A106010E08C480068002807
:1014300006D02020844A10600320844A106005E012
:101440000520824A106010207F4A106008207E4AE2
:10145000906151E081480068012803D104207A4A54
:10146000906102E00420784A10600820764A90617A
:1014700042E03CE0744A9268D3B2754A1068421C5C
:10148000734C2260764A1268135420460068734AEF
:101490001268904205D204206C4A10606A4A1060BB
:1014A00005E00520694A10600420674A9061082021
:1014B000654A906120E0644A9268D3B2644A106839
:1014C000421C634C2260664A1268135405205F4A2E
:1014D000106010205C4A1060082090610CE000BF92
:1014E0000820594A90610520584A106004E000BF66
:1014F0000820554A906100BF00BF10BD00210020A8
:101500002022514B1A600BE0504A1268012A01D187
:10151000012006E0534A914201D3002001E0491C1A
:10152000F2E700BF70471020474908600820886133
:1015300000BF4548006810210842FAD101207047D9
:1015400010B502464848406802231843464B58608D
:101550004648006820231843444B18604448006BF9
:1015600080098001424B18631846006B0123184321
:101570003F4B18631846406B80098001586318463A
:10158000406B012318433A4B58636C202E4B9861F3
:10159000384858611861022A01D12B48C1600F20D8
:1015A00001238340344C236000BF4020264B186049
:1015B000012010BD00B500202449086024490860BE
:1015C0001F490860FFF79AFF012803D0FFF7ABFF20
:1015D000002000BD06E01D480068052802D1FFF785
:1015E000A2FF00E0F7E700BF0120F2E770B5044674
:1015F0000D46164601202043124908701848056020
:1016000016480660012014490860FFF7D3FF13480D
:1016100000681249086070BD70B504460D46164654
:10162000084804700B4805600B48066000200B4911
:101630000860FFF7BFFF084800680749086070BDF1
:1016400068000010800000100000004058000010EA
:1016500064000010700000107C0000107800001082
:1016600074000010FFFFFF000080044080800440F1
:10167000004004408001000000E100E030B5024677
:1016800000BFAF4B1B680124E4032342F9D17F2341
:10169000AB4C6360531C236000BFA94B1B68012443
:1016A000E4032342F9D118235343A64C1819A44B41
:1016B0005B690124A403234208D0A14B19691C468D
:1016C0006469A14D2C402404214303E09C4B5B69D9
:1016D000DB04590D02C09A4B9B691B071B0F08C006
:1016E000974BDB6908C0964B1B6A08C0944B5B6A3A
:1016F00008C0934B9B6A08C030BD70B500BF2FE097
:101700000120C003064213D090484568402005429E
:1017100005D08F480068401C8D49086070BD80204E
:1017200005421DD08B480068401C8A490860F5E7D7
:101730006807400F14D17404640C002C10D0202CC6
:101740000ED8824840681021884380494860611E55
:10175000C8B2FFF793FF0121601E80007E4A11503E
:101760007A480669002ECBD100BFD7E700210020C0
:101770004AE0F322754B5A62002918D100229A627E
:10178000764ADA6200221A63C21DF93292000123FE
:10179000DB031A436D4B5A63C207D20F02D1704A62
:1017A0009A631FE06F4A694B9A6301211AE06E4AFF
:1017B000664B9A626D4ADA626D4A821892B21A6377
:1017C0006B4A8218120C03239B031A435F4B5A6324
:1017D000C207D20F02D1624A9A6303E0614A5B4BAF
:1017E0009A6300210022594BDA63624B1A605A60F7
:1017F0009A60421C554B1A6200BF544A126A012378
:10180000DB031A42F9D1401C2028B2D3704710B52F
:1018100004465948406808210843574948605748DA
:101820000068574908435549086048480068C007A0
:10183000C00F05D1454800680121084343490860AD
:1018400005205049086041480068402108433F494D
:1018500008604D48C8600020886108460068402143
:1018600088433A490860084600684008400008601C
:1018700000BF36480068C007C00FFAD1FFF776FFF7
:101880000D2001218140414A116000BF2F480068AE
:101890000E2108432D49086010BDF0B503460C46E3
:1018A000002A01D100BFFEE702CA002C02D0CE0000
:1018B000B00800E0084620CA082D00D908250126F6
:1018C000B60731420CD1860005277F033E431F4FE8
:1018D0007E6300263E632E4EFE620026BE620BE053
:1018E000060C07277F033E43184F7E6386B23E6394
:1018F000284EFE621C4EBE622E07360F2327FF01C4
:101900003E43124FBE6340CAFE6340CA194F3E6059
:1019100040CA7E601668BE60F7260C4F7E62002CBF
:1019200002D09E1C3E6202E05E1C084F3E6200BF79
:10193000064E366A0127FF033E42F9D1F0BD000092
:101940008000054008050010FF5F00000000054012
:10195000880000108400001088040010FC1F0000A4
:101960008810000088140000FFFF0000FF9F0000A7
:1019700000001000400005400080044080800440CA
:1019800000000200800105400123000000E100E0AA
:10199000FC5F0000FFDF000070B505466348806B08
:1019A00010218843614988636148006861490843A0
:1019B0005F490860002404E00020A1005E4A505006
:1019C000641C082CF8D35D4840698F2188435B492B
:1019D0004861084640690121084358494861584810
:1019E000C06A8F2188435649C8620846C06A0121EF
:1019F00008435349C862514880698F2188434F4941
:101A0000886108468069012108434C49886129465C
:101A10004C48006803F07EFA401E00024A49084321
:101A20004A49086070BD70B505464048806B10217A
:101A300088433E4988633E4800683E4908433C4924
:101A40000860002404E00020A1003B4A5050641CC0
:101A5000082CF8D33A48406B8721884338494863BB
:101A60000846406B02210843354948633348006803
:101A700087218843314908600846006802210843ED
:101A80002E49086029462F48006803F043FA401E9B
:101A900000022D4908432D49086070BD30B501464C
:101AA000082900DB002129480068000A0002274CB1
:101AB0002060204604680120884001252D06284327
:101AC00004432248046007E08800204C00190269A2
:101AD000D00FC00700D000E0F6E700BF1B48006849
:101AE00007242406A043194C20601948024201D063
:101AF000002030BD1004830D1846FAE71348006833
:101B000007210906084204D01048006888430F499D
:101B100008600E480068FF2108430C490860084629
:101B200000680C4908430949086070470082044076
:101B3000808004400020000008080010804004401D
:101B400040400440080000100100200000C0014097
:101B5000000000400000010010B5002203211046E3
:101B6000FEF788FD002204210120FEF783FD0022FC
:101B700008210120FEF77EFD002209210120FEF749
:101B800079FD00220A210120FEF774FD00220B21BD
:101B90000120FEF76FFD10BD10B508210120FEF7F2
:101BA00060FD002801D1012010BD09210120FEF7B0
:101BB00058FD002801D10220F6E70A210120FEF796
:101BC00050FD002801D10320EEE70B210120FEF794
:101BD00048FD002801D10420E6E703210020FEF79C
:101BE00040FD002801D10520DEE704210120FEF799
:101BF00038FD002801D10620D6E70020D4E70000F8
:101C000010B5012209210220FEF734FD012209212D
:101C10000220FEF71BFD01220A210220FEF72AFD09
:101C200001220A210220FEF711FD01220B210220D0
:101C3000FEF720FD10BD70B50446202C01DBFF240B
:101C400003E0E006C00E11490C5C002209210220CD
:101C5000FEF7FCFC002511E000220A210220FEF71D
:101C6000F5FCE207D20F0B210220FEF7EFFC641017
:101C700001220A210220FEF7E9FC6D1C082DEBD39E
:101C8000012209210220FEF7E1FC70BD346400004E
:101C9000002106E0002200E0521CFC4B9A42FBDBD4
:101CA000491C8142F6D37047F0B50746002610E084
:101CB00000240AE0002504E0CB20FFF7E9FF681CC0
:101CC000C5B20F2DF8DB601CC4B2832CF2DB701C94
:101CD000C6B2BE42ECDBF0BD10B5044600220521C1
:101CE0000220FEF7B3FC002204210220FEF7AEFC26
:101CF00021460020FFF7FDFA012204210220FEF711
:101D0000A5FC012205210220FEF7A0FC10BD10B5A4
:101D10000446012205210220FEF798FC002204213E
:101D20000220FEF793FC21460020FFF7E2FA012291
:101D300004210220FEF78AFC012205210220FEF781
:101D400085FC10BD70B504462546E117090F4919F9
:101D500009110901611AC8B2FFF7BEFF2546E11754
:101D6000090F4919091108461030FFF7B5FF70BD7A
:101D700010B504462020FFF7AFFF2046FFF7ACFF69
:101D800010BD70B505460C462120FFF7A5FF28467B
:101D9000FFF7A2FF2046FFF79FFF70BD70B5054615
:101DA0000C462220FFF798FF2846FFF795FF2046B4
:101DB000FFF792FF70BD10B504464021214308464D
:101DC000FFF78AFF10BD10B504468120FFF784FF9E
:101DD0002046FFF781FF10BD10B504468D20FFF7A8
:101DE0007BFF102121430846FFF776FF10BD10B599
:101DF0000446A02121430846FFF76EFF10BD10B531
:101E00000446A42121430846FFF766FF10BD10B524
:101E10000446A62121430846FFF75EFF10BD10B51A
:101E20000446A820FFF758FF2046FFF755FF10BDD6
:101E300010B50446AE2121430846FFF74DFF10BD03
:101E400010B50446B02121430846FFF745FF10BDF9
:101E500010B50446C02121430846FFF73DFF10BDE1
:101E600010B50446D320FFF737FF2046FFF734FFB5
:101E700010BD10B50446D520FFF72EFF2046FFF712
:101E80002BFF10BD10B50446D920FFF725FF2046D3
:101E9000FFF722FF10BD10B50446DA20FFF71CFF44
:101EA000022121430846FFF717FF10BD10B5044675
:101EB000DB20FFF711FF2046FFF70EFF10BD10B526
:101EC000E320FFF709FF10BD70B50646002410E0BF
:101ED0002046FFF7B5FF0020FFF734FF002504E0A0
:101EE0003046FFF714FF681CC5B2802DF8DB601C7C
:101EF000C4B2082CECDB70BD70B50646022410E0BD
:101F00002046FFF79DFF0020FFF71CFF002504E09F
:101F10003046FFF7FCFE681CC5B2802DF8DB601C64
:101F2000C4B2082CECDB70BD10B5A320FFF7D4FEC3
:101F30001020FFF7D1FE3020FFF7CEFE00240BE08B
:101F40003021091BC8B2FFF736FF1121091B504A87
:101F5000505CFFF79DFE641C112CF1D3002409E0B6
:101F600021462031C8B2FFF726FF4A49085DFFF736
:101F70008FFE641C0E2CF3D36420FFF789FE00242F
:101F80000BE02D21091BC8B2FFF715FF0E21091B1D
:101F9000404A505CFFF77CFE641C0E2CF1D30024F9
:101FA00009E021462031C8B2FFF705FF3A49085D34
:101FB000FFF76EFE641C0A2CF3D34620FFF768FE81
:101FC00000240BE02921091BC8B2FFF7F4FE0A2107
:101FD000091B314A505CFFF75BFE641C0A2CF1D3ED
:101FE000002409E021462031C8B2FFF7E4FE2B4966
:101FF000085DFFF74DFE641C072CF3D34620FFF766
:1020000047FE00240BE02621091BC8B2FFF7D3FED0
:102010000721091B214A505CFFF73AFE641C072C7C
:10202000F1D3002409E021462031C8B2FFF7C3FEF6
:102030001B49085DFFF72CFE641C042CF3D34620DB
:10204000FFF726FE00240BE02321091BC8B2FFF78F
:10205000B2FE0421091B124A505CFFF719FE641CF2
:10206000042CF1D3002409E021462031C8B2FFF747
:10207000A2FE0C49085DFFF70BFE641C022CF3D393
:102080004620FFF705FE00241AE000008813000038
:1020900090000010A1000010AF000010BA00001066
:1020A000C1000010C50000102121091BC8B2FFF7B4
:1020B00082FE0221091BFE4A505CFFF7E9FD641C09
:1020C000022CF1D319204001FFF7E2FD002408E0C3
:1020D0002021091BC8B2FFF76EFE0220FFF7D8FDD2
:1020E000641C202CF4D3002408E03021091BC8B262
:1020F000FFF761FE0A20FFF7CBFD641C312CF4D3FF
:10210000FF209130FFF7C4FD10BDF8B5074600264B
:10211000022411E02046FFF793FE0020FFF712FE95
:10212000002505E0B85DFFF7F2FD761C681CC5B21E
:10213000802DF7DB601CC4B2082CEBDBF8BD10B5BA
:102140000020FFF7C1FE10BDFFB581B00D46164659
:102150001F462C4615E02046FFF772FE3846FFF773
:10216000F1FD0020009006E00198FFF7D0FD0098F7
:10217000401CC0B200900A9900988842F4DB601CB1
:10218000C4B2701C8442E6DB05B0F0BD70B500241B
:1021900013E02046FFF754FE0020FFF7D3FD002593
:1021A00007E05520FFF7B3FDAA20FFF7B0FD681C3C
:1021B000C5B2402DF5DB601CC4B2082CE9DB70BD54
:1021C00070B50020FFF73CFE0020FFF7BBFD0024A8
:1021D00004E00120FFF79BFD601CC4B2802CF8DBFB
:1021E0000720FFF72DFE0020FFF7ACFD002404E0E0
:1021F0008020FFF78CFD601CC4B2802CF8DB00242B
:1022000011E02046FFF71CFE002508E02846FFF7F6
:1022100099FDFF20FFF77BFD28467F30C5B2802D5A
:10222000F4DB601CC4B2082CEBDB70BDFFB581B0E1
:1022300007460D46012F02D0022F0BD104E0A80063
:1022400028189C49441805E0681E810040189A49E6
:10225000441800BF00BF0398FFF7F2FD0498FFF792
:1022600071FD002605E02078FFF751FD641C701C0D
:10227000C6B2052EF7DB0020FFF749FD05B0F0BD23
:10228000FFB581B007460D461E462C4633466021F9
:102290000120039AFFF7CAFF0CE021783346384645
:1022A000039AFFF7C3FF641CB01DC6B22078002854
:1022B00000D100E0F1E700BF05B0F0BDFFB583B08D
:1022C00005460E4617460295344619E02046FFF7AC
:1022D000B7FD0698FFF736FD002001900AE002994D
:1022E0000878FFF714FD0298401C02900198401CEA
:1022F000C0B201900C9901988842F0DB601CC4B216
:10230000781C8442E2DB07B0F0BDFFB581B00F4618
:1023100014460498203881004018664945180198F1
:10232000FFF78EFD002F0BD10020FFF70BFD002CD7
:1023300003D10020FFF7EBFC02E0FF20FFF7E7FCF2
:10234000791CC8B2FFF7FEFC00260DE0002C03D17B
:102350002878FFF7DCFC04E02978C943C8B2FFF70E
:10236000D6FC6D1C701CC6B2052EEFDB002C03D111
:102370000020FFF7CCFC02E0FF20FFF7C8FC05B00F
:10238000F0BDF8B506460F4614460025082E18DAAB
:1023900008E023783A4629463046FFF7B6FFA81DE5
:1023A00085B2641C2078002801D0012000E00020C4
:1023B000691C89B2802901DA012100E0002108426C
:1023C000E7D1F8BDFFB581B015461F46A320FFF742
:1023D00083FC0298FFF780FC2846FFF77DFC0198FC
:1023E000002802D0012825D111E000240CE0E0B241
:1023F000FFF7E1FC002603E0C820FFF749FC761C4C
:102400000A988642F8D3E419AC42F0D312E00024D3
:102410000DE0291BC8B2FFF7CEFC002603E0C82060
:10242000FFF736FC761C0A988642F8D3E419AC42D2
:10243000EFD300BF00BF0020FFF7BDFC05B0F0BD2B
:10244000F8B504460D4616461F4626212143084688
:10245000FFF742FC0020FFF73FFC2846FFF73CFC5B
:102460003846FFF739FC3046FFF736FC2F20FFF7E0
:1024700033FC0698FFF718FCF8BDF8B504460D4686
:1024800016461F46A320FFF727FC3846FFF724FC1B
:102490000698FFF721FC21462931C8B2FFF71CFC42
:1024A0000020FFF719FC2846FFF716FC089805E006
:1024B000C500001024650000D9690000FFF70CFC7E
:1024C0003046FFF709FC0798FFF706FC2F20FFF7BF
:1024D00003FC0998FFF7E8FBF8BD10B52E20FFF7C5
:1024E000FBFB10BD10B50120FFF7A2FC00240CE09F
:1024F000E0B2FFF768FCC820FFF7CAFBC820FFF76F
:10250000C7FBC820FFF7C4FB641CD02CF0D310BD60
:1025100010B5D0240DE0611EC8B2FFF754FCC820EE
:10252000FFF7B6FBC820FFF7B3FBC820FFF7B0FBEF
:10253000641E002CEFD10020FFF77AFC10BD10B50F
:102540000446002C02D0012C0ED106E00020FFF73B
:102550006FFC0120FFF753FC06E00020FFF74FFC63
:102560000120FFF765FC00BF00BF10BD0120FFF791
:1025700046FC0BE00120FFF75BFC0220FFF794FB19
:102580000020FFF755FC0220FFF78EFBF2E710B5A5
:102590000020FFF74DFC8020FFF76BFC3F20FFF78A
:1025A0003EFC0020FFF75CFC0020FFF704FC00204D
:1025B000FFF712FC0220FFF7DBFB0120FFF717FCFF
:1025C0000820FFF745FC1020FFF765FCCF20FFF740
:1025D000FAFB2220FFF756FC4020FFF767FC0020A3
:1025E000FFF70DFC0020FFF712FC0020FFF76CFC4A
:1025F0000120FFF71DFC10BD10B5012205210220AE
:10260000FEF738F80020FFF713FC8020FFF731FCBD
:102610003F20FFF704FC0020FFF722FC0020FFF71B
:10262000CAFB0420FFF7D8FB0220FFF7A1FB012023
:10263000FFF7DDFB0820FFF70BFC1020FFF72BFC5A
:10264000CF20FFF7C0FBF120FFF71CFC4020FFF775
:102650002DFC0020FFF7D3FB0020FFF7D8FB002064
:10266000FFF732FC0120FFF7E3FB10BD00B587B098
:102670005BA207CA04AB07C30020FFF725FC30208C
:1026800028230522022100905848FFF717FE052055
:10269000FFF70AFBFFF73CFF0520FFF705FBFFF7FD
:1026A00021FF0520FFF700FB20200123402200210D
:1026B00000900846FFF786FE0520FFF7F5FA202078
:1026C00001234022002100901846FFF77BFE0520E1
:1026D000FFF7EAFAFFF701FF0520FFF7E5FA01200F
:1026E0000021202301900093029103900B460A469B
:1026F0000846FFF7C2FE0520FFF7D6FA01200021A9
:102700001F22202300930192029103900B460A4658
:102710000846FFF7B2FE0520FFF7C6FA02200021A7
:102720000122202300930192029103900B46032281
:102730000846FFF7A2FE0520FFF7B6FA02200021A7
:102740001F22202300930192029103900B46032243
:102750000120FFF792FE0520FFF7A6FA02200021D4
:102760000122202300930192029103900B4607223D
:1027700004210120FFF781FE0520FFF795FA0220D2
:1027800000211F22202300930192029103900B4607
:10279000072204210020FFF770FE0520FFF784FACE
:1027A000FFF79BFE0520FFF77FFAFF20FFF78CFB6A
:1027B0000520FFF779FAFFF7E9FC0520FFF774FA27
:1027C0000020FFF781FBFFF7FBFC0520FFF76CFA09
:1027D0002523032204A90120FFF752FD07B000BD05
:1027E000354E49564953494F4E000000646400007D
:1027F000F3B587B00020C449086008460768012285
:1028000005211046FDF736FF002205210120FDF7C6
:102810001DFF1E20FDF756FD012205211046FDF784
:1028200015FF002205210120FDF724FF00200346AB
:102830000246052100900120FDF776FD05210120CB
:10284000FDF751FE002410E0E007C00F00231A46F8
:10285000052100900120FDF767FD00BFAA48006830
:10286000B842FBD0A8480768641C032CECD30024B2
:102870006FE0012000231A4605210090FDF754FD6A
:1028800000BFA1480068B842FBD09F4807689F4836
:1028900000680190002003460246052100900120B7
:1028A000FDF742FD00BF98480068B842FBD096484B
:1028B0000768964801680198814204D293490198BB
:1028C0000968461A05E0914801680198081A90497C
:1028D0000E1A082C07D26806050E8E48864237D39A
:1028E0000120054334E0102C0BD206984006000E60
:1028F0000690884886422BD301210698084306900B
:1029000026E0182C0BD205984006000E0590814851
:1029100086421DD3012105980843059018E0202C1C
:102920000BD204984006000E04907A4886420FD3DA
:1029300001210498084304900AE003984006000E21
:1029400003907448864203D30121039808430390FF
:10295000641C282C8DD3012000231A4605210090E9
:10296000FDF7E2FC00BF68480068B842FBD0079959
:102970000598087007990498487008980570089998
:10298000069848700295029D06982818C0B20290D9
:10299000059902984018C0B2029004990298401814
:1029A000C0B2029003990298884202D1012009B076
:1029B000F0BD0020FBE730B589B00025FFF7BFFB75
:1029C00055A200210846FFF7DCFC98E007A908A8FB
:1029D000FFF70EFF0446002C3ED008A800788021A7
:1029E00008420FD008A800784106490E08A80170D7
:1029F0004078009008A803784AA2102102A802F0AB
:102A0000EFFD09E008A84078009008A8037849A2E3
:102A1000102102A802F0E4FD02AA00210220FFF723
:102A2000B0FC6846407F00906846037F45A21021B5
:102A300002A802F0D5FD02AA00210320FFF7A1FCA5
:102A40006846407F00906846037F08A84278017876
:102A500040A002F0B5FD02E045A002F0B1FD08A8DB
:102A6000007832280FDD002D0DD101220221002037
:102A7000FDF7ECFD40A200210720FFF782FC44A0F7
:102A800002F09EFD012508A800782D280FDA002D00
:102A90000DD0002202211046FDF7D8FD42A20021F0
:102AA0000720FFF76EFC46A002F08AFD0025C82033
:102AB000FDF708FCFFF770F8062800D120E0C820D9
:102AC000FDF700FCFFF768F8062800D118E0C820E1
:102AD000FDF7F8FBFFF760F8062800D110E0C820EA
:102AE000FDF7F0FBFFF758F8062800D108E0C820F2
:102AF000FDF7E8FBFFF750F8062800D100E065E796
:102B000000BF09B030BD0000340400103C040010C8
:102B100080BB00001809000054656D702026204815
:102B2000756D000054656D703A202D25642E256466
:102B30002020000054656D703A2025642E25642005
:102B40002000000048756D3A202025642E25642061
:102B5000200000000D0A54656D703A2025642E2572
:102B60006420202048756D3A202025642E256400BD
:102B70000D0A6661696C000054656D703E35302C3D
:102B8000205475726E206F6E2046414E000000008A
:102B90000D0A54656D703E35302C205475726E20D0
:102BA0006F6E2046414E000054656D703C34352CEC
:102BB000205475726E206F66662046414E000000FC
:102BC0000D0A54656D703C34352C205475726E209E
:102BD0006F66662046414E0008B500210091012233
:102BE00069468820FEF718FD012269468820FEF715
:102BF000FDFC6846007808BD08B50121009101225E
:102C000069468820FEF708FD012269468820FEF704
:102C1000EDFC6846007808BD704708B5002168469D
:102C2000017080214170022269468820FEF7F4FC81
:102C3000AD48AE490860AE48AE49086008BD38B539
:102C4000002404210091012269468820FEF7E4FC5B
:102C5000012269468820FEF7C9FC684604780521F0
:102C60000091012269468820FEF7D6FC01226946C0
:102C70008820FEF7BBFC68460078000204439B48AE
:102C8000006844439B480168204602F043F904462B
:102C9000204638BD38B50546FFF79EFF04460C2197
:102CA000204688430446A8002043C4B20021684659
:102CB00001704470022269468820FEF7ADFC38BDE1
:102CC00038B50446FFF788FF0546AD08AD00284635
:102CD000204305460021684601704570022269467E
:102CE0008820FEF799FC002C06D0012C08D0022C7D
:102CF0000AD0032C10D10BE07D487E4908600BE020
:102D00007D487C49086007E07C487A49086003E018
:102D100010207849086000BF00BF38BD38B50446B0
:102D2000FFF76AFF05460C21284688430546A000A8
:102D30002843C5B2012168460170457002226946E8
:102D40008820FEF769FC002C06D0012C08D0022C4C
:102D50000AD0032C10D10BE06348644908600BE0F3
:102D600067486249086007E066486049086003E018
:102D700065485E49086000BF00BF38BD38B50446ED
:102D800000255C490968614308465849096802F012
:102D9000C1F805460221684601702804010E684604
:102DA0004170022269468820FEF736FC38BD38B5EE
:102DB000044600254F490968614308464B490968A4
:102DC00002F0A8F805460321684601702804010EA8
:102DD00068464170022269468820FEF71DFC38BD16
:102DE00038B50546FFF708FF0446202120468843F2
:102DF0000446204628430446012168460170447079
:102E0000022269468820FEF707FC38BD10B5FFF79F
:102E1000F3FE044620202040400910BD38B5FFF7DE
:102E2000EBFE0446202120468843044641216846A3
:102E300001704470022269468820FEF7EDFB38BD20
:102E400038B5FFF7C9FE0446802120468843044672
:102E50000021684601704470022269468820FEF70E
:102E6000DBFB4020044300216846017044700222CD
:102E700069468820FEF7D0FB38BD10B586B0FFF755
:102E80005EF922A200210846FFF77BFA002101200B
:102E9000FEF756FBFFF7C0FEFFF7BFFE0120FFF76E
:102EA0003DFF1CA002F08CFB1AE0FFF7C8FE0446B1
:102EB000234619A21421684602F092FB6A460021BB
:102EC0000220FFF75EFA214615A002F079FBFF20F1
:102ED0002D30FDF7F7F9FEF75FFE062800D100E080
:102EE000E3E700BF06B010BDCD030000C80000102E
:102EF00000000100CC0000100010000000010000E4
:102F0000340F0000D03C000040F300004C696768BB
:102F1000740000000D0A000025642020202000001D
:102F2000256420200000000008B50921009101223D
:102F300069463A20FEF770FB012269463A20FEF707
:102F400055FB6846007808BD08B51621009101229E
:102F500069463A20FEF760FB012269463A20FEF7F7
:102F600045FB6846007808BD38B50446162168461A
:102F700001704470022269463A20FEF74DFB38BDCD
:102F800010B50520FFF7F0FF10BDF8B504460D465B
:102F9000164600BFFFF7C8FFC007C00FFAD00621D2
:102FA0000091012269463A20FEF736FB012269466C
:102FB0003A20FEF71BFB6846007840B220700721DC
:102FC0000091012269463A20FEF726FB012269465C
:102FD0003A20FEF70BFB6846007840B228700821C3
:102FE0000091012269463A20FEF716FB012269464C
:102FF0003A20FEF7FBFA6846007840B23070F8BD20
:1030000070B504460D46164600210120FEF798FAD9
:10301000FFF7B6FF6D480078012817D132462946E0
:103020002046FFF7B2FF207869490978401840B27E
:103030002070287867490978401840B228703078A5
:1030400065490978401840B2307070BD3246294653
:103050002046FFF79AFF20780021081A40B25C4909
:10306000087028780021081A40B25A490870307850
:103070000021081A40B258490870012053490870CD
:1030800000BFE2E770B505460024FFF75DFF044688
:103090000C21204688430446A8002043C4B22046A1
:1030A000FFF762FF70BD70B505460024FFF74CFFC7
:1030B0000446A408A4002046284304462046FFF7FF
:1030C00053FF70BD70B58AB0002400250026002192
:1030D000039102910191FFF732F840A200210846C6
:1030E000FFF74FF900210120FEF72AFAFFF748FF0A
:1030F00001AA02A903A8FFF748FF68460C21415620
:103100000020441A6846082141560020451A6846A6
:10311000042141560020461A54E001AA02A903A83E
:10312000FFF733FF6846007B001941B20391684600
:10313000007A401941B2029168460079801941B283
:10314000019168460C23C35626A2142104A802F05C
:1031500047FA04AA00210220FFF713F968460C2160
:10316000415623A002F02CFA68460823C35624A235
:10317000142104A802F034FA04AA00210320FFF766
:1031800000F968460821415620A002F019FA684665
:103190000423C35621A2142104A802F021FA04AA90
:1031A00000210420FFF7EDF86846042141561EA0D7
:1031B00002F006FAFA20FDF785F8FEF7EDFC062886
:1031C00000D100E0A9E700BF0AB070BDD300001035
:1031D000D0000010D1000010D200001041786973B7
:1031E0002D33000041636320783A202564202000BD
:1031F0000D0A41636320783A2025642C20200000CA
:1032000041636320793A20256420200041636320D4
:10321000793A2025642C20200000000041636320BF
:103220007A3A202564202000416363207A3A2025E1
:10323000642E200010B501460C78641EE2B2002313
:1032400005E0CC5CAA2C01D1541CE2B25B1C0C78CA
:103250009C42F6D8087803E08C5C6040541EE2B2D1
:10326000002AF9D110BDF3B581B00D4680220821A6
:103270000020FDF784FF0120FDF724F8002207213C
:103280000220FDF7E3F90198FFF7D4FF0090AA218F
:103290000020FEF72EF80120FDF714F80024BB21D2
:1032A0000020FEF726F8C2B22046641C2A540120F2
:1032B000FDF708F800270AE00198C15D0020FEF73D
:1032C00018F82855641C0120FCF7FCFF7F1C0198AE
:1032D0000078B842F0D800200099FEF70AF8285587
:1032E000641CFF20F530FCF7EDFF01202870002161
:1032F0000846FDF7FEFF0120FCF7E4FF0021084629
:10330000FDF7F7FFAA2806D0022208210020FDF7CA
:1033100036FF0020FEBD0120FCF7D4FF0021084647
:10332000FDF7E7FFBB2806D0022208210020FDF7A9
:1033300026FF0020EEE70120FCF7C4FF019840784B
:10334000012806D0202806D0212806D0222808D11E
:1033500005E00B2607E0072605E0132603E0032619
:1033600001E0072600BF00BF0027002409E000217C
:103370000846FDF7BEFF28550120FCF7A3FF7F1C80
:10338000641CB742F3D3012207210220FDF75EF946
:103390000120FCF797FF022208210020FDF7EFFE35
:1033A000E0B2B7E770B504460D4600221146022090
:1033B000FDF74CF9E80080221043620010430146FB
:1033C0000120FDF796FF00210120FDF792FFC6B214
:1033D000012200210220FDF739F9304670BD10B5F9
:1033E00002210020FFF7DEFF0446A406A40E042CF1
:1033F00013D100210846FFF7D5FFF949F94A128891
:103400008854F8480088401CF6490880084600881F
:10341000802807DB0020088004E000210846FFF731
:10342000C1FF044602210120FFF7BCFF0446A406A9
:10343000A40E042C13D100210120FFF7B3FFEA49A9
:10344000EA4A12888854E9480088401CE749088005
:1034500008460088802807DB0020088004E000215F
:103460000120FFF79FFF044610BD70B504460D46CE
:103470001646002211460220FDF7E8F8E800620037
:10348000104301460120FDF734FF31460120FDF7CE
:1034900030FF012200210220FDF7D8F870BDF8B5F9
:1034A00005460E46BF2203212846FFF7DEFF022114
:1034B0002846FFF777FF04462046102108430246BE
:1034C00002212846FFF7D1FF032211462846FFF7C5
:1034D000CCFF01212846FFF765FF04462046102156
:1034E0008843024601212846FFF7BFFF04212846F2
:1034F000FFF758FF044620468021884302460421F6
:103500002846FFF7B2FF832203212846FFF7ADFFCD
:103510003146E120000301F0FDFC84B2E2B200215B
:103520002846FFF7A2FF221201212846FFF79DFF40
:10353000032211462846FFF798FF00212846FFF78F
:1035400031FF002203210846FDF794F800200346CE
:103550000246032100900846FCF7E6FE03210846D8
:10356000FCF7C1FF012211462846FFF77EFF00212C
:103570002846FFF717FFF8BD70B505460C4600BF9B
:1035800005212846FFF70EFF20210842F8D02246E9
:1035900000212846FFF769FF70BD10B5044621469B
:1035A0000020FFF7E9FF10BD10B5044604E02178C4
:1035B0000020FFF7E1FF641C20780028F7D110BD40
:1035C00010B5044621460120FFF7D6FF10BD10B507
:1035D000044604E021780120FFF7CEFF641C207828
:1035E0000028F7D110BD0246002A17D18048008874
:1035F0007C4B1B88984229D079487D4B1B88C05C46
:1036000008707B480088401C794B18801846008859
:10361000802801DB00201880012070477548008851
:10362000724B1B88984211D06F48724B1B88C05C4C
:10363000087070480088401C6E4B1880184600883F
:10364000802801DB002018800120E6E70020E4E765
:1036500010B5044621460020FFF7C5FF10BD10B588
:10366000044621460120FFF7BEFF10BD70B5C6B06D
:103670000120FDF7A3FC022208210120FDF77FFDB8
:10368000E12149020120FFF70AFF032120A801825E
:103690000121418258A0259059A026905EA124A81E
:1036A000C16062A10161782228A9684601F06EFC20
:1036B00024A80FC801F04AF80026FA20FCF702FE01
:1036C00019E11FA8FDF704F9002803D018A8007F0E
:1036D000FFF776FF1FA8FFF7C2FF002867D018A8E2
:1036E000007FFDF7CDF818A8037F002231460720A0
:1036F000FEF70BFEB01D86B2782E00DD00260024FA
:1037000004E020A9601C085C0855641C072CF8D351
:1037100018A8007F20A9085520A80078462821D1A4
:1037200020A8407841281DD120A880784E2819D1A2
:1037300020A8C078202815D120A800794F2811D1C1
:1037400020A840796E280DD120A88079202809D1A1
:1037500020A8C079202805D1012202210020FCF7F1
:1037600075FF24E020A80078462820D120A84078C2
:1037700041281CD120A880784E2818D120A8C078D4
:10378000202814D120A800794F2810D120A84079F2
:1037900066280CD120A88079662808D120A8C07995
:1037A000202804D1002202211046FCF74FFFFEF72B
:1037B000F3F905462846012D06D0022850D00528E9
:1037C00068D006286FD187E020A8408A012839DD1B
:1037D00020A8408A401E81B220A8418235E0000026
:1037E00028080010D4000010A8080010D80000100D
:1037F000D6000010DA0000105A69674265650000C3
:10380000312E53656E642048656C6C6F205A696771
:103810004265652100000000322E5475726E206FE3
:103820006E206F746865722046414E00332E5475C9
:10383000726E206F6666206F746865722046414E16
:103840000000000020A8018A4182782228A9684649
:1038500001F09CFB24A80FC800F078FF002640E090
:1038600020A8418A008A814206DA20A8408A401CAA
:1038700081B220A8418202E0012020A9488278225A
:1038800028A9684601F082FB24A80FC800F05EFF5B
:10389000002626E020A8408A012805D002280AD068
:1038A000032816D10EE01BE073A0FFF790FE76A070
:1038B00001F086FE0EE07AA0FFF789FE7BA001F002
:1038C0007FFE07E07DA0FFF782FE7FA001F078FE7B
:1038D00000E000BF00BF04E0002020A9488200E013
:1038E00000BF00BF002D06D020A8408A002802D0CB
:1038F000FA20FCF7E7FC20A8408A002800D0E0E688
:1039000046B070BD30B5C1B00120FDF757FB0222B3
:1039100008210120FDF733FCE12149020020FFF7D7
:10392000BEFD032110A881870121C1876AA02090D4
:103930006BA0219070491FA8C160143101617822E9
:1039400023A9684601F022FB1FA80FC800F0FEFE65
:103950000025FA20FCF7B6FC86E01EA8FCF7B8FFAD
:10396000002807D018A8007EFFF717FE18A8007ED1
:10397000FCF786FF1EA8FFF76BFE00280FD018A8E3
:10398000037E002229460720FEF7BFFCA81D85B252
:10399000782D00DD002518A8007EFCF771FFFEF7EA
:1039A000FBF80446012C06D0022C1DD0052C35D086
:1039B000062C4ED149E010A8C08F012806DD10A8C2
:1039C000C08F401E81B210A8C18702E010A8818F6D
:1039D000C187782223A9684601F0D8FA1FA80FC82A
:1039E00000F0B4FE002535E010A8C18F808F814221
:1039F00006DA10A8C08F401C81B210A8C18702E06F
:103A0000012010A9C887782223A9684601F0BEFAD0
:103A10001FA80FC800F09AFE00251BE010A8C08F59
:103A2000012802D002280DD106E034A0FFF7BCFD2A
:103A300036A001F0C5FD06E03AA200210720FEF7FE
:103A4000A0FC00E000BF00BF04E0002010A9C88770
:103A500000E000BF00BF002C06D010A8C08F0028D7
:103A600002D0FA20FCF72EFC10A8C08F002800D04E
:103A700073E741B030BD000048656C6C6F205A6937
:103A8000674265652120000053656E643A204865F1
:103A90006C6C6F205A696742656521200000000048
:103AA00046414E204F6E20200000000053656E649A
:103AB0003A2046414E204F6E2020000046414E20C5
:103AC0004F6666200000000053656E643A20464150
:103AD0004E204F666620000052532D3438350000CA
:103AE000312E53656E642048656C6C6F2052532DE7
:103AF00034383521000000001838000048656C6C2F
:103B00006F2052532D3438352120000053656E64E8
:103B10003A2048656C6C6F2052532D343835212083
:103B20000000000020202020202020202020202015
:103B300020202020202020202000000010B501207F
:103B4000FE490870C820FCF7BDFB0020FB49087047
:103B500000F0BEFE10BD10B5F9480068401CF849E1
:103B60000860F8480068401CF6490860F34800788F
:103B7000012802D100F0ACFE02E0002000F0A8FE17
:103B8000F0480068642802D30020EE490860EC4841
:103B900000680146FF39F5390FD1002201210320C9
:103BA000FCF754FDE8480068401CE7490860E74816
:103BB0000068401CE54908600DE0E14800687D218F
:103BC000C900884207D3012211460320FCF73EFDBD
:103BD0000020DB49086010BD70B58EB0142109A823
:103BE00001F0EDF900200790089000247225492685
:103BF00009A801F0CDF808A80079012809D108A882
:103C00004079FF2803D008A84079002801D10EB0E0
:103C100070BDFFF793FFC820FCF754FBCC48002190
:103C2000016041608160002409E009A8015DC84885
:103C3000401C0155015DC7A001F0C2FC641C062CAC
:103C4000F3D3C5A001F0BCFC08A8417A027AC3797D
:103C50008079019302920391009008A84379027938
:103C6000BEA107A801F0D2FC042108A88172052199
:103C7000C172732168460175742141753A218175BD
:103C8000C575BE48017868460176467608A8817AEF
:103C90006846817608A8C17A6846C176B848069A0F
:103CA000059906C00821083800F098FE00BFAEE76D
:103CB000632303708170427070470246002107E061
:103CC000B048405C904201D101207047481CC1B20D
:103CD0006429F5DB0020F8E7F0B585B0AA4801902B
:103CE000062001F04AF9002403E0FF210198015564
:103CF000641C032000028442F7DB0198FEF705FAFA
:103D0000AF208000FCF7DEFA00273C46002404E0E8
:103D10009E48015D01980155641C03200002844205
:103D2000F6DB9A48FEF7F1F9AF208000FCF7CAFAFB
:103D3000022001F022F9002734E001F015F93021CA
:103D4000009001F0FDF8CEB2202E01DC012E00DA49
:103D500028E03046FFF7B1FF002800D022E07007CE
:103D6000400F0390F010029000240EE00298C00172
:103D700086494018005D012203998A4090430299C8
:103D8000C901824A89180855641C802CEEDB38462C
:103D90007F1C7C490E547D48FEF7B7F91420FCF7D0
:103DA00091FA00BF202FC8D1FF205F30FCF78AFABC
:103DB000052001F0E2F800272BE001F0D5F8009093
:103DC000C017410E00980818C011C1010098401A90
:103DD000C5B26E2D01DC0F2D00DA1AE02846FFF780
:103DE0006CFF002800D014E0002408E0E0016649E0
:103DF0004018405DE101654A89184855641C062C4D
:103E0000F4DB38467F1C5F490D546048FEF77DF9AE
:103E100000BF5F2FD1DB05B0F0BD38B56120009049
:103E20006C465BA200210120FEF7ABFA2BE012E00A
:103E30005D48007800280DD10022AA215B48FFF7D9
:103E400037FF0321594800F0C9FD7D200001FCF730
:103E500039FA00E000E0EBE700BF06E0002052493D
:103E6000087053480068FFF7FAFB4F4800780128B4
:103E7000F4D04F4800680078592804D10121204629
:103E800000F0ACFD00E0D2E700BFFEF758F949A210
:103E900000210320FEF775FA7D20C000FCF712FA1E
:103EA000002038BDF0B5ADB00546002400201090CC
:103EB00000260F9000270E900D900C902C46414844
:103EC00000784B2802D1002000F07FFF3E480078A8
:103ED000012806D1002000F078FF04210120FCF722
:103EE00002FB39480078022805D1012000F06DFF5F
:103EF0000020354908701448006800286CD0002064
:103F00001149086011AB12AA13A91C48009500784A
:103F100000F009FD2846FCF7E8F905287ED91821AC
:103F2000284600F05BFD202124A801F048F827A2D4
:103F300000210846FEF725FA10A84EE0F100001017
:103F4000F4030010F8030010E0000010E40000107B
:103F500028090010256420000A000000253032786E
:103F600020253032782025303278202530327820D4
:103F7000253032782025303278000000DD00001036
:103F8000FC030010540C001054090010F200001043
:103F9000636F6E6E65637420746F2061382E2E2EF1
:103FA0002E2E20200000000038040010070400100E
:103FB000EC000010636F6E6E656374206973206F90
:103FC0006B210000050400103904001073746F7237
:103FD000616765206F6E65009DE1407B009010A8D1
:103FE000037BF7A2102124A801F0FAFAF8A200211D
:103FF0000220FEF7C6F924AA00210220FEF7C1F92B
:1040000010A8407A009010A8037AF7A2102124A8E3
:1040100001F0E6FA24AA0021032000E0DDE0FEF72B
:10402000B0F9F5A2142124A8119B01F0D9FA24AA11
:1040300000210420FEF7A5F9F34800681E2802D3EA
:104040000120F2490870F148007801287ED1F0A3E0
:10405000F0A2102114A801F0C3FA10A8007B0A28CE
:1040600003DB10A8007B32282DDD01200D904B20B2
:10407000EC490870002000F0A8FEEA480378EAA2A4
:10408000202124A801F0ACFA10A8007B32281ADD08
:104090000020FCF7E6FCE948E949086008460068AA
:1040A000322809DCE7A3E8A2102124A801F098FA3D
:1040B0000020FCF7E0FC06E0E148E7A210210368DD
:1040C00024A801F08DFA10A8007B0A282EDB10A886
:1040D000007B32282ADC00200D9010A8007B3228BB
:1040E00024DC0020FCF7C7FC012202210020FCF7A1
:1040F000C1FA012202210020FCF7A8FA3220D0499F
:10410000086008460068322809DCCEA3D6A2102138
:1041100024A801F065FA0020FCF7ADFC06E0C848D1
:10412000CDA21021036824A801F05AFA10A8007A41
:104130000A2803DB10A8007A32280CDD01200C903D
:10414000CD490870B7480378B7A200E046E02021C7
:1041500024A801F045FA10A8007A0A2805DB10A867
:10416000007A322801DC00200C9011980A2803D331
:10417000B249119888420ED901200E904B20A949CE
:104180000870002000F03DFEA6480378A6A220217A
:1041900024A801F025FA11980A2805D3A7491198F7
:1041A000884201D800200E900C990D9841180E9865
:1041B0000818B24900228A56801812D1472099491E
:1041C0000870012211461046FCF740FA9548037822
:1041D00095A2202124A801F003FA02E00020A749BB
:1041E00008700B2020560A21615609230091019086
:1041F000E356A3A214211CA801F0F2F91CAA002185
:104200000720FEF7BEF8206901F078F8A24AA34B18
:104210000791069000F092FF0022A14B09910890AF
:1042200000F0F4FF0B910A9001F076F80646304654
:1042300001F064F807910690206901F05FF8964A52
:10424000964B0191009000F079FF0022944B03916E
:10425000029000F0DBFF05910490079B069A00F0A6
:104260005EFF00228F4B0991089000F067FF0B91D1
:104270000A9001F051F81090606901F03FF8864A09
:10428000864B0791069000F059FF0022844B09915C
:10429000089000F0BBFF0B910A9001F03DF8074633
:1042A000384601F02BF807910690606901F026F876
:1042B000794A7A4B0191009000F040FF0022784B40
:1042C0000391029000F0A2FF05910490079B069ACB
:1042D00000F025FF0022734B0991089000F02EFF9B
:1042E0000B910A9001F018F80F9032466EA124A8A5
:1042F000109B01F08BF924AA00210520FEF741F85C
:104300003A466CA124A80F9B01F080F924AA002151
:104310000620FEF736F82DB0F0BD00B589B068482C
:104320000078012842D1002065490870654800687E
:10433000FFF795F900283AD0624800680078C0215C
:104340000840614909788901884230D100202E490E
:1043500008602E48007801280ED13AA32DA2102122
:1043600004A801F03DF90020002802D0012000F04F
:1043700048FD002025490870524800680078302127
:10438000084006D0102813D0202812D0302811D190
:1043900051E14C48006800780007000F0BD001285D
:1043A0000AD0022809D0032808D1CCE07EE179E1C7
:1043B000DDE016E15DE189E0A3E0B3E0D4E00000D8
:1043C00054656D703A2025642E256420200000007D
:1043D00020202020202020202020202020202020DD
:1043E00020202020202000002048756D3A202564E0
:1043F0002E256420200000004C696768743A25640B
:104400002020202000000000E4000010E90000103F
:104410004F4E00004155544F203A20202573202054
:10442000202000000504001042454550205354410F
:10443000545553203A20256300000000F401000089
:104440003C0000104F46460046414E203A2025735E
:10445000202020200000000046414E203A20202548
:10446000642020202000000046414E203A202025D4
:104470007320202020000000F1000010EA0000104E
:10448000783A252D33642020793A252D3364202075
:104490007A3A252D33642000CDCCCCCCCCCC0C404A
:1044A00000009040000059404241543A25642E25B6
:1044B000645620004144433A25642E25645600008A
:1044C00038040010EC000010DD000010854A0021C7
:1044D0000120FDF756FF84A200210120FDF751FFC6
:1044E0000020FCF7C8FA012202210020FCF7C2F8E4
:1044F000012202210020FCF7A9F80A207C4908606B
:1045000033E0784A00210120FDF73BFF79A200212A
:104510000120FDF736FF0020FCF7A3FA7748744925
:10452000086022E06F4A00210120FDF72AFF74A2F3
:1045300000210120FDF725FF0020FCF792FAFA2068
:104540006B49086011E0674A00210120FDF719FF5F
:104550006DA200210120FDF714FF0020FCF781FA75
:1045600064206349086000E000BF00BF82E0684843
:10457000006800780007000F06D0012815D0022837
:1045800028D003282AD121E0564A00210120FDF736
:10459000F8FE60A200210120FDF7F3FE47206049EC
:1045A000087000205F49087019E04E4A0021012080
:1045B000FDF7E7FE5CA200210120FDF7E2FE4B20A3
:1045C0005749087001205749087008E001205949EF
:1045D000087004E047205249087000E000BF00BFA7
:1045E00048E04B48006800780007000F10D0012811
:1045F0001ED13C4A0021FDF7C4FE4FA2002101203C
:10460000FDF7BFFE002211460320FCF71FF810E063
:10461000344A00210120FDF7B4FE49A20021012007
:10462000FDF7AFFE012200210320FCF70FF800E0A8
:1046300000BF00BF1EE03648006800780007000F8A
:104640000F2801D1012000E00020002802D001281D
:104650000CD107E02E49096809780807000FFDF71B
:10466000EAFA04E02020FDF7E6FA00E000BF00BF10
:1046700000E000BF00BF1E48006832280ADC1BA310
:10468000184A98321021684600F0AAFF0020FCF773
:10469000F2F907E01648134A883210210368684689
:1046A00000F09EFF03210846FBF71DFF09B000BD87
:1046B00086B000202449086000F0D5F9FFF73EFAE3
:1046C000FFF70AFBFFF7A9FBFFF738FAFDF737FD05
:1046D00006E06846FFF7E6FBFFF77EFAFFF71DFEF0
:1046E000F7E70000D043000046414E5F4F464600CA
:1046F0003C00001046414E5F4F4E3100F401000077
:1047000046414E5F4F4E320046414E5F4F4E3300A2
:10471000EC000010535045414B45525F4F46460058
:1047200005040010F1000010535045414B45525F05
:104730004F4E0000E90000104C45445F4F4E000012
:104740004C45445F4F464600E40000100FB470B57E
:104750006946498A481E062100F0F2FB85B2681CB2
:104760000621484384B26946088AA04201DD052635
:1047700006E06946098A481E062100F0E1FB8EB278
:10478000FDF7DDFC00210846059AFDF7FAFD5023F0
:10479000002266211046FDF7B8FD672300226C2138
:1047A0001046FDF7B2FD2023002272211046FDF7CE
:1047B000ACFD28463130C3B2002278211046FDF707
:1047C000A4FD002420E06846418A062068430019C1
:1047D000401C81420BD10621694309198B0006A9AF
:1047E000CA58A11CC8B20121FDF7CBFD0AE0062181
:1047F000694309198B0006A9CA58A11CC8B2002137
:10480000FDF7BFFD601C84B2B442DCDD70BC08BCA7
:1048100004B0184710B527480068401C25490860B7
:1048200001210020FBF7B7FE0446002C08D02248E7
:104830000068401C2049086001210020FBF7DAFED7
:1048400010BD10B504210120FBF7A5FE00280CD0F7
:1048500004210120FBF773FE18480078401C17491B
:10486000087004210120FBF7C5FE05210120FBF79C
:1048700092FE00280CD01248806912490860124844
:104880000068401C1049086005210120FBF7B2FEBA
:1048900010BD10B503210846FBF77DFE002808D0A7
:1048A00001200A490870FEF79AFD03210846FBF72C
:1048B000A1FE10BD140400101804001039040010EB
:1048C00000E000E03C040010340400103804001044
:1048D00010B50446002C0ED0012C10D17F200949C0
:1048E000C8600122084801681046FCF776F90120EB
:1048F000FCF7B7F803E00120FCF7BDF800BF00BFEC
:1049000010BD0000008001404004001070B5044656
:104910000D4629462046FDF76BFFC0B270BD10B5AD
:10492000FEF78DF910BDF0B58DB007460C46154663
:104930001E4600200C9065200B9000200A900990E4
:10494000002108910791069129462046FFF7DEFFD6
:104950000C90FFF7E4FF306006AA07A908A8FEF74D
:104960004FFB0320FDF79AF80A900020FDF796F818
:1049700009900C98002828D0732168460170742192
:1049800041703A2181700B99C17007712178417192
:10499000617881712978C1716978017230680390FA
:1049A00008A80B494156684641720A49415681722E
:1049B00009494156C1720A98049009980590182235
:1049C0006946129800F0E2FA00BF0DB0F0BD000099
:1049D000000000001C0000001800000070B5054633
:1049E0000E46002400BF04E0285DFEF7E9FD601CD0
:1049F000C4B2B442F8DB70BD10B5002819DA844A9D
:104A000003071B0F083B9B089B00D2588307DC0E53
:104A1000FF23A3409A434B071B0E8407E40EA340D9
:104A20001A437B4B0407240F083CA408A4001A5126
:104A300018E0784A03231B02D21883089B00D2583F
:104A40008307DC0EFF23A3409A434B071B0E84070A
:104A5000E40EA3401A436F4B032424021B1984085D
:104A6000A4001A5110BD38B5FBF783FBFBF748FCD7
:104A70000320FBF7C7FB684C6848844200D90FE06D
:104A80002002000A401E6649486107210020C043F9
:104A9000FFF7B2FF0020624988610720086100BF6C
:104AA00060480069C008C0005E49086108460069A6
:104AB000012108435B490861012200210320FBF723
:104AC000D9FD012200210320FBF7C0FD0122114680
:104AD0000320FBF7CFFD012211460320FBF7B6FDB3
:104AE000012202210020FBF7C5FD01220221002046
:104AF000FBF7ACFD4B484030C06BC008C0004A49D2
:104B0000C8630846C06B012108434749C8630122B6
:104B100011461046FBF7AEFD012211461046FBF789
:104B200095FDFDF76DF82020FDF785F8FDF714F8E9
:104B30000020FCF743FA022208210020FCF71FFBAB
:104B4000FDF75AFDE1204002FBF72AFE0022114644
:104B50000320FBF77BFD002201210320FBF776FDFC
:104B6000C820FBF7AFFB012200210320FBF76EFDFD
:104B7000012211460320FBF769FD002208210220D3
:104B8000FBF778FD012208210220FBF75FFD0020E2
:104B900003460246042100900120FBF7C5FB0421D7
:104BA0000120FBF7A0FC0020FCF708FA02220821F4
:104BB0000020FCF7E4FA0120FCF700FA02220821A9
:104BC0000120FCF7DCFAE12149020120FEF767FC35
:104BD000FDF712FD1548FCF726FF00210120FCF728
:104BE000AFFCFEF7CDF9FEF717F8FEF716F8012037
:104BF000FEF794F84B2189010020FBF757FF0221B3
:104C00001220FFF7F9FE0121881EFFF7F5FE38BDDF
:104C10001CED00E000E100E080BB0000FFFFFF00B2
:104C200000E000E00040044040400440009F2400B9
:104C300010B5802208210020FCF7A1FA0120FBF723
:104C400041FB002208210220FBF714FD10BDFEB538
:104C500005460F466420FBF735FB002207210220A2
:104C6000FBF7F4FC3846FEF7E5FA0190AA21002094
:104C7000FCF73FFB0120FBF725FB0024BB210020B4
:104C8000FCF737FBC2B22046641C2A540120FBF714
:104C900019FB002000900EE00098395C0020FCF722
:104CA00028FBC2B22046641C2A540120FBF70AFBF1
:104CB0000098401C0090397800988142ECD8002080
:104CC0000199FCF716FB2855641C0220FBF7FAFA41
:104CD0000120287000210846FCF70BFB0120FBF7A0
:104CE000F1FA00210846FCF704FBAA2806D00222AC
:104CF00008210020FCF743FA0020FEBD0120FBF74D
:104D0000E1FA00210846FCF7F4FABB2806D002229B
:104D100008210020FCF733FA0020EEE70120FBF722
:104D2000D1FA7878012806D0202806D0212806D08C
:104D3000222808D105E00B2607E0072605E0132608
:104D400003E0032601E0072600BF00BF002000901B
:104D500000240BE000210846FCF7CBFA285501207F
:104D6000FBF7B0FA0098401C0090641C0098B04219
:104D7000F0D3012207210220FBF768FC0120FBF79A
:104D8000A1FA022208210020FCF7F9F9E0B2B4E709
:104D900010B50446FFF74CFF50492046FFF757FF78
:104DA00010BD10B500210DE0002207E0002301E056
:104DB0005C1CE3B28342FBDB541CE2B20A2AF5DB43
:104DC0004C1CE1B20A29EFDB10BD10B50446444883
:104DD000C06BC008C000401C4149C8630122114695
:104DE0001046FBF747FC224601210846FBF72EFC44
:104DF0006420FFF7D6FF012211461046FBF726FC80
:104E000010BD10B504463648C06BC008C000401C39
:104E10003349C863012211461046FBF72BFC22469A
:104E200001210846FBF712FC10BD10B504462D48C1
:104E30000069C008C0002B49C8610122022100207E
:104E4000FBF718FC224602210020FBF7FFFBC820DD
:104E5000FBF738FA012202210020FBF7F7FB10BD17
:104E6000FEB506460F46002E0AD11FA200210620DD
:104E7000FDF787FA22A200210720FDF782FAFEBD86
:104E80000025002425E06C2C1DDC7B5D1EA2042186
:104E9000684600F0A5FB68460378A1B20022062010
:104EA000FDF733FAA41D68464378A1B2002206201C
:104EB000FDF72BFAA41D68468378A1B200220620D4
:104EC000FDF723FAA41D12A200210720FDF759FACD
:104ED0006D1CB542D7DB00BFD1E70000006C0000BD
:104EE000404004400040044020202020202020207A
:104EF0002020202020202020202020202000000012
:104F00004661696C00000000253032582000000026
:104F10004F4B000030B50B460146002020220124F3
:104F200009E00D46D5409D4205D31D469540491BDD
:104F30002546954040191546521E002DF1DC30BD26
:104F400070B500242546002801DA012440420029DA
:104F500001DA01254942FFF7DDFFAC4200D04042B3
:104F6000002C00D0494270BD0549064A08685043EC
:104F7000054A80180860400870470149086070477A
:104F8000440400106D4EC6413930000003460B4307
:104F90009B0703D009E008C9121F08C0042AFAD2EF
:104FA00003E00B78491C0370401C521EF9D2704775
:104FB000D2B201E00270401C491EFBD270470022B1
:104FC000F6E710B504460846114602462046FFF7AC
:104FD000EFFF204610BD0000F0B5074608465840D8
:104FE00087B0C00F049048000C465900400849089B
:104FF000BD1A884105D23846214617461C4602464E
:105000000B4658004008104303D13846214607B0EC
:10501000F0BD200D039040055900400D490D05904D
:10502000401A029040286DDA18030121000B09058F
:105030000843019004980092002805D0019952423B
:105040000020884100920190029840210A1A01999B
:10505000009800F0AFF906460D46684607C800F014
:10506000CAF9C0196141039A0B0DD71753403B434E
:1050700043D0049A002A2BD0029A012A039A12DC08
:1050800012050023C01A914101242405001C61412E
:10509000D20F059CD20700930192029432462B4610
:1050A00000F0C9F9B3E71305234A0F469C18002204
:1050B000801A9F4101210905001C4F4100187F41C2
:1050C000214610187941EA0F1043B6196D4114E0DA
:1050D000EA076D08C3071D437608039B16430022A9
:1050E0001B05801A994101242405001C6141CC074D
:1050F0004008204349088018594132462B4600F0A9
:105100008DF984E7049801224000C117121A002388
:105110008B4104982146C517381AA941EFE730B4EE
:105120000124E407634030BC56E730B40124E407AF
:10513000614030BC50E700000000E0FFF0B51FB454
:1051400088B00B9909984840C10FC9070091099987
:1051500000204900490809910B99864649004908F1
:105160000B9109990898084303D00B990A980843B2
:1051700003D1002001460DB0F0BD09980124400084
:10518000420D4800410D099824050003000B2043FF
:1051900009900B980AAE0003000B20430B905018A7
:1051A00019494018002201901446104601E00328D6
:1051B00001DA034600E003239C46C11A0AE05F00BF
:1051C00008ADED5B4F00F75B7D430027AA187C41DB
:1051D0005B1E491C6145F2DD430004A9CA5221044B
:1051E000120C0A43240C401C0828E0DB01980290B2
:1051F0000099704601910090059B049A07990698C2
:1052000000F019F9B7E700000DFCFFFFF0B50C4600
:105210005C4085B0E40FE40703944C00002664086A
:1052200059009446490802460296224321D062461C
:105230000A431ED06200570D4A000E032303550D8A
:10524000024601242C492405781B1B0B360B401801
:1052500000902343264360461C46101AB44103D3F2
:105260000098401C009002E0921800985B410028D2
:1052700003DA0020014605B0F0BD00200121090538
:105280000746864611E064461D46141BB54106D309
:105290006546521BB341744607430C43A646CD07EF
:1052A00040084908284392185B4105460D43EAD15E
:1052B0001046184313D060461946504071400843C9
:1052C00003D100220123DB0709E06046101AB34135
:1052D00002D20122002302E00122D243531000989F
:1052E00074460105381C6141029C039D0019694107
:1052F00000F094F8BFE70000FD0300000EB505497B
:105300000291002100910A460B46019100F093F8AA
:1053100003B000BD330400004A0009030123090B58
:105320001B051943094B10B5520D9A4201DA0020B2
:1053300010BD064B34339A4203DC9A1A00F04AF847
:1053400010BD03495118884010BD0000FF03000044
:10535000CDFBFFFFF0B51FB40646002082B0054626
:105360004024019100901BE0019922460F463046EF
:1053700000F030F8049A059B801A994110D310462A
:105380001946224600F016F8361A8F410197224638
:1053900001200021009F00F00DF838184D410090C9
:1053A0002046641E0028DFDC019B00982946324617
:1053B00007B0F0BD10B5202A04DB0146203A914029
:1053C000002010BD914020239C1A0346E34019435E
:1053D000904010BD10B5202A04DB0846203AD0408A
:1053E000002110BD0B46D340D0402024A21A91408A
:1053F0000843194610BD10B5202A06DBCB17084616
:10540000203A1041C117194310BD0B461341D0403B
:105410002024A21A91400843194610BD10B5002B54
:1054200008DA0024401C614192185B411A4301D103
:105430004008400010BDF0B51FB482B005460C0016
:1054400003D0084600F008F902E000F005F920302A
:105450000246009021462846FFF7ACFF049B059AC0
:1054600006460F4618431143084303D130463946D8
:1054700007B0F0BD1846104317D0009840210A1A13
:1054800018460599FFF7A6FF04460D46009A0599B0
:105490000498FFF78FFF084301D0012000E00020AF
:1054A000C11704430D4326432F4300990E98F40A75
:1054B000401A79050A30730500220C43FD0A0028C2
:1054C00002DA00200146D3E70105101969410C9C5E
:1054D0000D9D00196941FFF7A1FFC9E74A000903C3
:1054E0000123090B1B0519430A4B10B5520D9A42B3
:1054F00002DA0020014610BD064B34339A4203DC29
:105500009A1AFFF767FF10BD034BD218FFF752FF3F
:1055100010BD0000FF030000CDFBFFFF10B5002908
:1055200004DB0124E40740428C412146002B04DBCC
:105530001C460123DB075242A341994200D190420D
:1055400010BD0000064C0125064E05E02046E3682C
:1055500007C82B4398471034B442F7D3FAF7B4FD89
:105560000C6C00002C6C000070B58C180578401C89
:105570006B075B0F01D10378401C2A1106D102781A
:10558000401C03E00678401C0E70491C5B1EF9D1DC
:105590002B0705D40023521E0DD40B70491CFAE7CB
:1055A0000378401CCB1A921C03E01D785B1C0D7025
:1055B000491C521EF9D5A142D8D3002070BD00006D
:1055C0000FB410B503A9044B044A029800F024F963
:1055D00010BC08BC04B018474B0200001C000010AF
:1055E0000FB41CB50A46521E0192009007A9064B43
:1055F0006A46069800F010F9009A002111701CBC50
:1056000008BC04B018470000DD6300000FB410B5FB
:1056100004A9074B02AA039800F0FEF8044602A969
:10562000002000F0F1FE204610BC08BC04B0184772
:10563000096400007CB514461D46491E0191009086
:10564000044B6A462946204600F0FEFA009A0021E3
:1056500011707CBDF36300002021020C01D01021E9
:105660001046020A01D008391046020901D0091F6C
:105670001046820801D0891E1046420801D0881EBB
:105680007047081A704730B47446641E2578641C4D
:10569000AB4204D3635D5B00E31830BC18471D4682
:1056A000F8E702E008C8121F08C1002AFAD17047C3
:1056B000002001E001C1121F002AFBD17047000049
:1056C000F0B51FB484B007980699020D01430FD1BD
:1056D0000F98012449A3012807D004980F9A8460E9
:1056E0000360C260416009B0F0BD0E98C143F4E7A9
:1056F000434844491018484305140F9801280E9850
:105700000BD0281A401C00243F4E404900940191C0
:105710000290002803DA474216E04042F3E70746CA
:1057200012E0F80707D02246334601990098FFF7A8
:1057300005FD019100902246334610461946FFF7B9
:10574000FDFC04460E467F10002FEAD10298019B13
:105750000028009A0799069802DAFFF7EFFC01E0AB
:10576000FFF754FD04460E460022294BFFF7D6FEF4
:1057700003D80020C043014607E00022254B204605
:105780003146FFF729FCFFF7A9FE102409E0002CA1
:105790000ADB0A220023FFF7DDFD059B30321A5594
:1057A000641E02460A43F2D1641C1122059B121B9F
:1057B0001C190F9B012B08D00123084302D10E981E
:1057C00082420DDD00236D1C0EE0084303D10E98CC
:1057D000151A6D1E0AE011200E9000200F908CE724
:1057E000824201DA00236D1E002B86D004980F99A7
:1057F000456004608260C16075E700003000000011
:1058000001FCFFFF104D0000000024400000F03FAD
:105810000000F0430000E03FFFB591B005460F46A1
:105820000026F2E0252876D100246D1CFB49009467
:10583000012302942A781846203A904002460A42F0
:1058400002D004436D1CF5E728782A280ED00222E6
:10585000287801463039092915D800990A23594377
:105860003039401814436D1C0090F1E701CF0090CF
:10587000002805DA012040030443009840420090CC
:10588000022004436D1C28782E2815D104200443DF
:105890006D1C28782A280AD101CF6D1C02900BE0DC
:1058A00002990A225143303940186D1C0290287821
:1058B000014630390929F3D928786C2810D006DC44
:1058C0004C281AD068280ED06A2817D104E0742812
:1058D00013D07A2812D110E00120400504430CE0D7
:1058E0000121090501E0032109050C436978814282
:1058F00003D101206D1C000524186D1C28788646F4
:105900006E281FD00DDC632833D005DC00287DD045
:10591000582812D1BAE010E0642801D069280CD1CF
:105920007FE073282ED004DC6F2870D0702804D15B
:10593000AEE075286CD078286BD0149A13999047F4
:10594000761C61E06002400F022807D003280AD0CD
:10595000042838680AD03F1D066055E001CFF117D2
:105960000660416050E001CF06804DE03F1D0670AB
:105970004AE001CF694608740020487404A80390E7
:10598000012003E001CF03900020C04361070FD541
:10599000002101E00199491C029A0191914213DA18
:1059A0008142F7DB019A0399895C0029F2D10BE06F
:1059B000002101E00199491C01918142FADB019A21
:1059C0000399895C0029F5D101990098139A401A2E
:1059D00000902146149B00F0D5FC019980194618CF
:1059E00007E0039803990078491C0391149A1399CE
:1059F00090470198401E0190F3D22146149B139AC0
:105A0000009800F09FFC86196D1C03E006E048E05A
:105A10003AE03BE02878002800D003E7304615B094
:105A2000F0BD0A200021049005916002410F022977
:105A300005D001CFC2179446032907D009E0FF1D06
:105A4000FF08FF0079683868083706E000B2C2171F
:105A50009446042902D140B2C1178C460021624607
:105A60008C4504DA404291418C462D2102E021050B
:105A700004D52B216A461176012103E0E10701D00C
:105A80002021F7E7019153E00A200BE0102009E004
:105A90001020049000210420044308200591029066
:105AA00003E008200021059104906002410F0229C3
:105AB00005D001CF00229446032907D009E0FF1D3D
:105AC000FF08FF0079683868083706E0002280B2D6
:105AD0009446042902D1C0B200218C4600210191D4
